:100000000C942A000C9447000C9447000C94470071
:100010000C9447000C9447000C9447000C94470044
:100020000C9447000C9447000C9447000C94AF18B4
:100030000C9447000C9447000C9447000C94470024
:100040000C9447000C9447000C9447000C94470014
:100050000C94470011241FBECFE5D8E0DEBFCDBF12
:1000600011E0A0E6B0E0E2E6F9E302C005900D92EF
:10007000A838B107D9F711E0A8E8B1E001C01D9296
:10008000AE38B107E1F70E94F31A0C94AF1C0C9440
:100090000000EF92FF920F931F937B018C0120E0F1
:1000A00030E040E05FE40E94F50388238CF0C80153
:1000B000B70120E030E040E05FE40E94C1010E940F
:1000C00055049B01AC01205030404040504806C0D0
:1000D000C801B7010E9455049B01AC01B901CA01D6
:1000E0001F910F91FF90EF900895A0E0B0E0EBE733
:1000F000F0E00C94331CDC012B01FA019C9192304E
:1001000008F439C1EB018881823008F433C194309E
:1001100069F4843009F02FC111969C91119789815F
:10012000981709F428C1A3E7B1E025C1843009F488
:1001300021C18230A9F4923009F01DC19A01AD01AC
:1001400088E0EA010990AE01E90109929E0181501F
:10015000C1F7E201898111969C918923818308C1AD
:10016000923009F407C112962D903C901397EB0141
:100170008A819B811496AD90BD90CD90DC901797AD
:10018000EC80FD800E811F819101281B390BB90184
:1001900037FF04C066277727621B730B6032710537
:1001A0000CF061C0121613066CF537014801062EDB
:1001B00004C096948794779467940A94D2F721E0C8
:1001C00030E040E050E004C0220F331F441F551FB1
:1001D0006A95D2F721503040404050402E213F21B7
:1001E00040235123211531054105510521F021E01E
:1001F00030E040E050E079018A01E628F72808293C
:1002000019293CC0232BD1F1260E371E350146019A
:10021000062E04C096948794779467940A94D2F734
:1002200021E030E040E050E004C0220F331F441FC3
:10023000551F6A95D2F721503040404050402A2146
:100240003B214C215D21211531054105510521F04E
:1002500021E030E040E050E059016A01A628B728CB
:10026000C828D9280BC0821593052CF01C01AA249C
:10027000BB24650103C0EE24FF24870111969C91E5
:10028000D20111968C91981709F445C0992339F041
:10029000A80197012A193B094C095D0906C0A6016E
:1002A00095012E193F09400B510B57FD08C01182D3
:1002B0003382228224833583468357831DC081E0A5
:1002C00081833382228288279927DC01821B930B4A
:1002D000A40BB50B84839583A683B7830DC0220F2F
:1002E000331F441F551F24833583468357838281E0
:1002F000938101979383828324813581468157813D
:10030000DA01C9010197A109B1098F5F9F4FAF4F72
:10031000BF4328F30BC0918333822282EA0CFB1C7B
:100320000C1D1D1DE482F5820683178383E0808304
:10033000248135814681578157FF1AC0C901AA27F8
:1003400097FDA095BA2F81709070A070B0705695EF
:10035000479537952795822B932BA42BB52B848318
:100360009583A683B7838281938101969383828349
:10037000DF0101C0D201CD01CDB7DEB7E2E10C94BF
:100380004F1CA0E2B0E0E7ECF1E00C943F1C698365
:100390007A838B839C832D833E834F835887E9E048
:1003A000EE2EF12CEC0EFD1ECE010196B7010E943F
:1003B0007E058E010F5E1F4FCE010596B8010E948B
:1003C0007E058A8991E089278A8BC701B801AE0131
:1003D000475E5F4F0E9475000E94A904A096E6E068
:1003E0000C945B1CA0E2B0E0E8EFF1E00C943F1C41
:1003F00069837A838B839C832D833E834F835887C5
:10040000F9E0EF2EF12CEC0EFD1ECE010196B701A6
:100410000E947E058E010F5E1F4FCE010596B8012A
:100420000E947E05C701B801AE01475E5F4F0E9482
:1004300075000E94A904A096E6E00C945B1CA0E263
:10044000B0E0E5E2F2E00C94331C69837A838B839D
:100450009C832D833E834F835887CE010196BE0136
:10046000675F7F4F0E947E05CE010596BE016F5EDD
:100470007F4F0E947E059985923088F0898982306D
:10048000C8F0943019F4823051F404C0843029F457
:10049000923081F483E791E0C6C0923049F420E0C5
:1004A0009A858A89981321E02A87CE010996BBC0D4
:1004B000823049F420E09A858A89981321E02A8BBA
:1004C000CE014196B0C02D843E844F8458886D88FB
:1004D0007E888F88988CEE24FF248701AA24BB2471
:1004E000650140E050E060E070E0E0E0F0E0C10174
:1004F00081709070892BE9F0E60CF71C081D191D1E
:100500009A01AB012A0D3B1D4C1D5D1D80E090E062
:10051000A0E0B0E0E614F7040805190520F481E036
:1005200090E0A0E0B0E0BA01A901480F591F6A1F8E
:100530007B1FAA0CBB1CCC1CDD1C97FE08C081E0F5
:1005400090E0A0E0B0E0A82AB92ACA2ADB2A3196B6
:10055000E032F10549F0660C771C881C991C569412
:10056000479437942794C3CFFA85EA892B893C892D
:100570008B859C85280F391F2E5F3F4F17C0CA01FE
:1005800081709070892B61F016950795F794E79428
:1005900080E090E0A0E0B0E8E82AF92A0A2B1B2BC3
:1005A00076956795579547952F5F3F4F77FDE7CF36
:1005B0000CC0440F551F661F771F17FD4160EE0CDE
:1005C000FF1C001F111F21503040403090E05907A0
:1005D00090E0690790E4790760F32B8F3C8FDB0193
:1005E000CA018F779070A070B07080349105A1051A
:1005F000B10561F447FD0AC0E114F10401051105DC
:1006000029F0405C5F4F6F4F7F4F40781A8EFE1786
:1006100011F081E08A8F4D8F5E8F6F8F78A383E01A
:10062000898FCE0149960E94A904A096E2E10C941C
:100630004F1CA8E1B0E0EFE1F3E00C943B1C6983B0
:100640007A838B839C832D833E834F835887B9E0C5
:10065000EB2EF12CEC0EFD1ECE010196B7010E948F
:100660007E058E010F5E1F4FCE010596B8010E94D8
:100670007E052985223008F47EC03989323010F495
:10068000B8017CC08A859A8989278A87243011F02D
:10069000223031F4231709F06EC063E771E06EC0B9
:1006A000343039F41D861E861F86188A1C861B86E8
:1006B00004C0323021F484E08987B7015FC02B8504
:1006C0003C858B899C89281B390B3C872B87ED84C3
:1006D000FE840F851889AD88BE88CF88D88CEA142F
:1006E000FB040C051D0540F4EE0CFF1C001F111F40
:1006F000215030403C872B8720E030E040E050E044
:1007000080E090E0A0E0B0E460E070E0EA14FB0478
:100710000C051D0540F0282B392B4A2B5B2BEA18C2
:10072000FB080C091D09B695A79597958795EE0CC2
:10073000FF1C001F111F6F5F7F4F6F31710531F775
:10074000DA01C9018F779070A070B0708034910584
:10075000A105B10561F427FD0AC0E114F10401050A
:10076000110529F0205C3F4F4F4F5F4F20782D87B8
:100770003E874F87588BBE01675F7F4FCB010E943A
:10078000A9046896EAE00C94571CA8E1B0E0EBECF1
:10079000F3E00C943F1C69837A838B839C832D83C5
:1007A0003E834F83588789E0E82EF12CEC0EFD1E26
:1007B000CE010196B7010E947E058E010F5E1F4F8C
:1007C000CE010596B8010E947E058985823040F0F1
:1007D0008989823028F0C701B8010E94F60501C05E
:1007E0008FEF6896E6E00C945B1CA8E1B0E0EBEFBD
:1007F000F3E00C943F1C69837A838B839C832D8365
:100800003E834F83588789E0E82EF12CEC0EFD1EC5
:10081000CE010196B7010E947E058E010F5E1F4F2B
:10082000CE010596B8010E947E058985823040F090
:100830008989823028F0C701B8010E94F60501C0FD
:100840008FEF6896E6E00C945B1CA8E1B0E0EBE269
:10085000F4E00C943F1C69837A838B839C832D8303
:100860003E834F83588789E0E82EF12CEC0EFD1E65
:10087000CE010196B7010E947E058E010F5E1F4FCB
:10088000CE010596B8010E947E058985823040F030
:100890008989823028F0C701B8010E94F60501C09D
:1008A00081E06896E6E00C945B1CACE0B0E0EBE520
:1008B000F4E00C94431C69837A838B839C83CE0180
:1008C0000196BE016B5F7F4F0E947E058D81823055
:1008D00061F1823050F1843021F48E81882351F10E
:1008E0002EC02F81388537FD20C06E812F31310514
:1008F0001CF06623F9F023C08EE190E0821B930B7D
:1009000029853A854B855C8504C056954795379572
:1009100027958A95D2F76623B1F05095409530958A
:1009200021953F4F4F4F5F4F0EC020E030E040E039
:1009300050E009C02FEF3FEF4FEF5FE704C020E02A
:1009400030E040E050E8B901CA012C96E2E00C9496
:100950005F1CDF92EF92FF920F931F93FC01E480E4
:10096000F58006811781D1808081823048F480E053
:1009700090E0A0E1B0E0E82AF92A0A2B1B2BA5C0E1
:10098000843009F49FC0823021F4EE24FF248701D3
:1009900005C0E114F1040105110519F4E0E0F0E0EF
:1009A00096C0628173819FEF623879070CF05BC05B
:1009B00022E83FEF261B370B2A3131052CF020E0CF
:1009C00030E040E050E02AC0B801A701022E04C088
:1009D00076956795579547950A94D2F781E090E010
:1009E000A0E0B0E004C0880F991FAA1FBB1F2A9582
:1009F000D2F70197A109B1098E219F21A023B1232C
:100A00000097A105B10521F081E090E0A0E0B0E001
:100A10009A01AB01282B392B4A2B5B2BDA01C90138
:100A20008F779070A070B07080349105A105B105EA
:100A300039F427FF09C0205C3F4F4F4F5F4F04C080
:100A4000215C3F4F4F4F5F4FE0E0F0E02030A0E0EF
:100A50003A07A0E04A07A0E45A0710F0E1E0F0E00E
:100A600079018A0127C06038710564F5FB01E158FE
:100A7000FF4FD801C7018F779070A070B07080349D
:100A80009105A105B10539F4E7FE0DC080E490E0C1
:100A9000A0E0B0E004C08FE390E0A0E0B0E0E80E9A
:100AA000F91E0A1F1B1F17FF05C016950795F7941F
:100AB000E794319687E016950795F794E7948A9521
:100AC000D1F705C0EE24FF248701EFEFF0E06E2F91
:100AD000679566276795902F9F77D794DD24D794E5
:100AE0008E2F8695492F462B582F5D29B701CA01B5
:100AF0001F910F91FF90EF90DF900895FC01DB01B3
:100B0000408151812281622F6F7770E0221F22275E
:100B1000221F9381892F880F822B282F30E0991F65
:100B20009927991F11969C93119721153105A9F5C5
:100B3000411551056105710511F482E037C082E865
:100B40009FEF13969C938E9312979A01AB0167E0E7
:100B5000220F331F441F551F6A95D1F783E08C93F2
:100B60000DC0220F331F441F551F12968D919C916B
:100B70001397019713969C938E931297203080E0E1
:100B8000380780E0480780E4580758F314962D93FF
:100B90003D934D935C93179708952F3F310579F45A
:100BA000411551056105710519F484E08C93089590
:100BB00064FF03C081E08C9312C01C9210C02F57B9
:100BC000304013963C932E93129783E08C9387E0EA
:100BD000440F551F661F771F8A95D1F770641496CE
:100BE0004D935D936D937C93179708951F93DC014C
:100BF000FB019C91923008F447C08081823008F458
:100C000043C0943051F411961C91843099F5818140
:100C1000682F70E0611B71093FC0843021F0923071
:100C200031F48230B9F18181882389F12DC0119688
:100C30001C9111978230F1F081811817D9F4129626
:100C40002D913C911397828193818217930794F0A1
:100C500028173907BCF014968D919D910D90BC9189
:100C6000A02D2481358146815781281739074A07ED
:100C70005B0718F4112341F00AC082179307A407F9
:100C8000B50740F4112319F061E070E005C06FEF83
:100C90007FEF02C060E070E0CB011F910895DF9309
:100CA000CF93CDB7DEB7A7E2B0E0E7E2F0E0808116
:100CB00080648C93A7E2B0E0E7E2F0E08081806896
:100CC0008C93A7E2B0E0E7E2F0E080818F7D8C9327
:100CD000A6E2B0E0E6E2F0E080818F7D8C93A6E2B0
:100CE000B0E0E6E2F0E080818E7F8C93A6E2B0E097
:100CF000E6E2F0E0808182608C93A6E2B0E0E6E27A
:100D0000F0E0808184608C93A6E2B0E0E6E2F0E05F
:100D1000808180688C93CF91DF910895DF93CF938A
:100D200000D00F92CDB7DEB78B83A7E2B0E0E7E249
:100D3000F0E08081807E8C93A7E2B0E0E7E2F0E013
:100D400090818B81892B8C93A6E2B0E0E6E2F0E003
:100D5000808180648C93E6E2F0E0808182958F70E0
:100D6000882F90E0817090700097A9F3A6E2B0E020
:100D7000E6E2F0E0808180618C93E4E2F0E0808143
:100D800091819A83898389819A810F900F900F9026
:100D9000CF91DF910895DF93CF93CDB7DEB7299739
:100DA0000FB6F894DEBF0FBECDBF89836A834B8335
:100DB0008B81282F30E0398728878885998500978F
:100DC00039F0288539852130310509F475C0E2C034
:100DD0008981282F30E03F832E838E819F8181304F
:100DE000910559F12E813F81223031052CF48E81FD
:100DF0009F81009769F0CEC02E813F81223031055E
:100E000089F18E819F818330910509F440C0C2C071
:100E1000AAE3B0E0EAE3F0E08081482F8A81282F3E
:100E200030E081E090E0022E02C0880F991F0A9402
:100E3000E2F7809584238C93ADC0A7E3B0E0E7E3AD
:100E4000F0E08081482F8A81282F30E081E090E017
:100E5000022E02C0880F991F0A94E2F7809584231E
:100E60008C9398C0A4E3B0E0E4E3F0E08081482FE5
:100E70008A81282F30E081E090E0022E02C0880FA6
:100E8000991F0A94E2F7809584238C9383C0A1E391
:100E9000B0E0E1E3F0E08081482F8A81282F30E044
:100EA00081E090E0022E02C0880F991F0A94E2F7B9
:100EB000809584238C936EC08981282F30E03D83F8
:100EC0002C838C819D818130910549F12C813D815C
:100ED000223031052CF48C819D81009761F05AC03D
:100EE0002C813D812230310571F18C819D818330CF
:100EF0009105E9F14FC0AAE3B0E0EAE3F0E08081B8
:100F0000482F8A81282F30E081E090E0022E02C035
:100F1000880F991F0A94E2F7842B8C933BC0A7E3B8
:100F2000B0E0E7E3F0E08081482F8A81282F30E0AD
:100F300081E090E0022E02C0880F991F0A94E2F728
:100F4000842B8C9327C0A4E3B0E0E4E3F0E080813D
:100F5000482F8A81282F30E081E090E0022E02C0E5
:100F6000880F991F0A94E2F7842B8C9313C0A1E396
:100F7000B0E0E1E3F0E08081482F8A81282F30E063
:100F800081E090E0022E02C0880F991F0A94E2F7D8
:100F9000842B8C9329960FB6F894DEBF0FBECDBF7D
:100FA000CF91DF910895DF93CF93CDB7DEB7299727
:100FB0000FB6F894DEBF0FBECDBF89836A834B8323
:100FC0008B81282F30E0398728878885998500977D
:100FD00039F0288539852130310509F475C0E2C022
:100FE0008981282F30E03F832E838E819F8181303D
:100FF000910559F12E813F81223031052CF48E81EB
:101000009F81009769F0CEC02E813F81223031054B
:1010100089F18E819F818330910509F440C0C2C05F
:10102000ABE3B0E0EBE3F0E08081482F8A81282F2A
:1010300030E081E090E0022E02C0880F991F0A94F0
:10104000E2F7809584238C93ADC0A8E3B0E0E8E399
:10105000F0E08081482F8A81282F30E081E090E005
:10106000022E02C0880F991F0A94E2F7809584230C
:101070008C9398C0A5E3B0E0E5E3F0E08081482FD1
:101080008A81282F30E081E090E0022E02C0880F94
:10109000991F0A94E2F7809584238C9383C0A2E37E
:1010A000B0E0E2E3F0E08081482F8A81282F30E031
:1010B00081E090E0022E02C0880F991F0A94E2F7A7
:1010C000809584238C936EC08981282F30E03D83E6
:1010D0002C838C819D818130910549F12C813D814A
:1010E000223031052CF48C819D81009761F05AC02B
:1010F0002C813D812230310571F18C819D818330BD
:101100009105E9F14FC0ABE3B0E0EBE3F0E08081A3
:10111000482F8A81282F30E081E090E0022E02C023
:10112000880F991F0A94E2F7842B8C933BC0A8E3A5
:10113000B0E0E8E3F0E08081482F8A81282F30E09A
:1011400081E090E0022E02C0880F991F0A94E2F716
:10115000842B8C9327C0A5E3B0E0E5E3F0E0808129
:10116000482F8A81282F30E081E090E0022E02C0D3
:10117000880F991F0A94E2F7842B8C9313C0A2E383
:10118000B0E0E2E3F0E08081482F8A81282F30E050
:1011900081E090E0022E02C0880F991F0A94E2F7C6
:1011A000842B8C9329960FB6F894DEBF0FBECDBF6B
:1011B000CF91DF910895DF93CF9300D000D0CDB7CA
:1011C000DEB789836A838981282F30E03C832B83B3
:1011D0008B819C8181309105D1F02B813C81223023
:1011E00031052CF48B819C81009761F01EC02B810E
:1011F0003C812230310581F08B819C8183309105C7
:1012000081F013C0EAE3F0E08A8180830EC0E7E357
:10121000F0E08A81808309C0E4E3F0E08A81808382
:1012200004C0E1E3F0E08A8180830F900F900F907B
:101230000F90CF91DF910895DF93CF9300D000D02E
:10124000CDB7DEB789836A838981282F30E03C835C
:101250002B838B819C8181309105D1F02B813C8146
:10126000223031052CF48B819C81009761F01EC0E7
:101270002B813C812230310581F08B819C81833030
:10128000910581F013C0EBE3F0E08A8180830EC00A
:10129000E8E3F0E08A81808309C0E5E3F0E08A8139
:1012A000808304C0E2E3F0E08A8180830F900F9096
:1012B0000F900F90CF91DF910895DF93CF9300D0DF
:1012C00000D0CDB7DEB789836A838981282F30E0CB
:1012D0003C832B838B819C818130910549F12B814B
:1012E0003C81223031052CF48B819C81009761F088
:1012F0005AC02B813C812230310571F18B819C8158
:1013000083309105E9F14FC0ABE3B0E0EBE3F0E0EF
:101310008081482F8A81282F30E081E090E0022EE2
:1013200002C0880F991F0A94E2F784278C933BC070
:10133000A8E3B0E0E8E3F0E08081482F8A81282F1D
:1013400030E081E090E0022E02C0880F991F0A94DD
:10135000E2F784278C9327C0A5E3B0E0E5E3F0E053
:101360008081482F8A81282F30E081E090E0022E92
:1013700002C0880F991F0A94E2F784278C9313C048
:10138000A2E3B0E0E2E3F0E08081482F8A81282FD9
:1013900030E081E090E0022E02C0880F991F0A948D
:1013A000E2F784278C930F900F900F900F90CF91BE
:1013B000DF910895DF93CF9300D000D00F92CDB787
:1013C000DEB78A836B838A81282F30E03D832C83AC
:1013D0004C815D814130510541F18C819D8182308C
:1013E000910534F42C813D812115310561F052C005
:1013F0004C815D814230510551F18C819D8183305A
:101400009105B9F147C0E9E3F0E08081282F30E091
:101410008B81882F90E0A90102C0559547958A9548
:10142000E2F7CA018170898335C0E6E3F0E080818C
:10143000282F30E08B81882F90E0A90102C05595BC
:1014400047958A95E2F7CA018170898323C0E3E357
:10145000F0E08081282F30E08B81882F90E0A90177
:1014600002C0559547958A95E2F7CA018170898334
:1014700011C0E0E3F0E08081282F30E08B81882FDD
:1014800090E0A90102C0559547958A95E2F7CA01F7
:101490008170898389810F900F900F900F900F902A
:1014A000CF91DF910895DF93CF93CDB7DEB7A897A3
:1014B0000FB6F894DEBF0FBECDBF1CA21BA280E00A
:1014C00091E00E94BD0B813009F422C119A218A23B
:1014D0009FC00E942B0C8AA380E090E0A0E2B1E4C0
:1014E000898F9A8FAB8FBC8F698D7A8D8B8D9C8DF8
:1014F00020E030E04AEF54E40E941F02DC01CB01FF
:101500008D8B9E8BAF8BB88F6D897E898F89988DDF
:1015100020E030E040E85FE30E94250488232CF4BB
:1015200081E090E09C8B8B8B3FC06D897E898F8999
:10153000988D20E03FEF4FE757E40E94C50318164F
:101540004CF5698D7A8D8B8D9C8D20E030E040E2EA
:1015500051E40E941F02DC01CB01BC01CD010E94BD
:101560004900DC01CB019C8B8B8B0FC088EC90E099
:101570009A8B898B89899A890197F1F79A8B898B44
:101580008B899C8901979C8B8B8B8B899C8900977D
:1015900069F714C06D897E898F89988D0E944900F2
:1015A000DC01CB019C8B8B8B8B899C89988B8F87E3
:1015B0008F8598890197F1F7988B8F878AA10E9470
:1015C000E30F8AA10E94C9198AA388A199A18E5FFD
:1015D0009E4F6AA10E94E20B8BA19CA19C01220F4D
:1015E000331FC901880F991F880F991F280F391FB2
:1015F0008AA1882F90E0820F931F9CA38BA38BA1BD
:101600009CA10E948B1988A199A1019699A388A3F6
:1016100088A199A1843091050CF45BCF80E090E023
:10162000A8E4B2E48B879C87AD87BE876B857C85F9
:101630008D859E8520E030E04AEF54E40E941F0231
:10164000DC01CB018F839887A987BA876F81788562
:1016500089859A8520E030E040E85FE30E94250418
:1016600088232CF481E090E09E838D833FC06F81BE
:10167000788589859A8520E03FEF4FE757E40E94FF
:10168000C50318164CF56B857C858D859E8520E0FD
:1016900030E040E251E40E941F02DC01CB01BC01BA
:1016A000CD010E944900DC01CB019E838D830FC0D8
:1016B00088EC90E09C838B838B819C810197F1F770
:1016C0009C838B838D819E8101979E838D838D81E9
:1016D0009E81009769F714C06F81788589859A8506
:1016E0000E944900DC01CB019E838D838D819E8108
:1016F0009A83898389819A810197F1F79A838983F3
:1017000080E091E061E00E94E20B0E947D142CC019
:101710001F8E1E8E1D8E1FC08D8D9E8D8E5F9E4FC7
:101720000E94BD0B8F8F8BA19CA19C01220F331FA8
:10173000C901880F991F880F991F280F391F8F8D96
:10174000882F90E0820F931F9CA38BA38D8D9E8D7D
:1017500001969E8F8D8F8D8D9E8D84309105E4F244
:101760008BA19CA10E948B19A8960FB6F894DEBF9E
:101770000FBECDBFCF91DF910895DF93CF9300D0FF
:10178000CDB7DEB79A838983ECE3F0E08081882FC0
:1017900090E0827090700097B9F7EEE3F0E08981F5
:1017A0009A8191838083ACE3B0E0ECE3F0E0808148
:1017B00081608C93EDE3F0E080810F900F90CF91EA
:1017C000DF910895DF93CF9300D00F92CDB7DEB7AE
:1017D0009A8389836B83ECE3F0E08081882F90E02B
:1017E000827090700097B9F7EEE3F0E089819A81FA
:1017F00091838083ACE3B0E0ECE3F0E08081816032
:101800008C93EDE3F0E090818B81981779F0EDE314
:10181000F0E08B818083ACE3B0E0ECE3F0E080812A
:1018200084608C93ECE3F0E083E080830F900F9072
:101830000F90CF91DF910895DF93CF93CDB7DEB7AF
:1018400081E06FE00E94DB0881E06FEF0E941C09DD
:10185000CF91DF910895DF93CF93CDB7DEB7629735
:101860000FB6F894DEBF0FBECDBF84E18F871A8A12
:10187000C1C081E06A8940E00E94D307198AAEC0E6
:101880008989982F9C5F81E0692F0E94DA09888BF3
:101890008889882309F09FC08989282F30E08A89A8
:1018A000482F50E0C901880F991F820F931F840FA2
:1018B000951FFC01E558FE4F80818F8708C08989FC
:1018C000982F9C5F81E0692F0E94DA09888B8889B4
:1018D0008823A9F380E090E0A0E2B1E48B879C87A5
:1018E000AD87BE876B857C858D859E8520E030E049
:1018F0004AEF54E40E941F02DC01CB018F839887DA
:10190000A987BA876F81788589859A8520E030E03C
:1019100040E85FE30E94250488232CF481E090E0F6
:101920009E838D833FC06F81788589859A8520E06D
:101930003FEF4FE757E40E94C50318164CF56B853F
:101940007C858D859E8520E030E040E251E40E9458
:101950001F02DC01CB01BC01CD010E944900DC016A
:10196000CB019E838D830FC088EC90E09C838B839A
:101970008B819C810197F1F79C838B838D819E8164
:1019800001979E838D838D819E81009769F714C096
:101990006F81788589859A850E944900DC01CB0199
:1019A0009E838D838D819E819A83898389819A818B
:1019B0000197F1F79A83898381E06A8941E00E9467
:1019C000D3078F8562960FB6F894DEBF0FBECDBFEA
:1019D000CF91DF91089589898F5F898B89898430C0
:1019E00008F44ECF81E06A8941E00E94D3078A89DA
:1019F0008F5F8A8B8A89833008F43BCF38CFDF939F
:101A0000CF93CDB7DEB7E8970FB6F894DEBF0FBE21
:101A1000CDBF80E060E041E00E94CB0680E061E065
:101A200041E00E94CB0680E062E041E00E94CB06EC
:101A300082E06FEF0E94DB0880E090E0ACE0B2E46F
:101A40008DAB9EABAFABB8AF6DA97EA98FA998AD9A
:101A500020E030E04AEF54E40E941F02DC01CB0199
:101A600089AB9AABABABBCAB69A97AA98BA99CA992
:101A700020E030E040E85FE30E94250488232CF456
:101A800081E090E098AB8FA73FC069A97AA98BA9A4
:101A90009CA920E03FEF4FE757E40E94C5031816CA
:101AA0004CF56DA97EA98FA998AD20E030E040E209
:101AB00051E40E941F02DC01CB01BC01CD010E9458
:101AC0004900DC01CB0198AB8FA70FC088EC90E0F8
:101AD0009EA78DA78DA59EA50197F1F79EA78DA71F
:101AE0008FA598A9019798AB8FA78FA598A9009764
:101AF00069F714C069A97AA98BA99CA90E94490019
:101B0000DC01CB0198AB8FA78FA598A99CA78BA7C9
:101B10008BA59CA50197F1F79CA78BA788E30E9452
:101B2000F90E80E090E0A0E2B1E48FA398A7A9A706
:101B3000BAA76FA178A589A59AA520E030E04AEF61
:101B400054E40E941F02DC01CB018BA39CA3ADA334
:101B5000BEA36BA17CA18DA19EA120E030E040E856
:101B60005FE30E94250488232CF481E090E09AA38F
:101B700089A33FC06BA17CA18DA19EA120E03FEF76
:101B80004FE757E40E94C50318164CF56FA178A5DE
:101B900089A59AA520E030E040E251E40E941F02AE
:101BA000DC01CB01BC01CD010E944900DC01CB016D
:101BB0009AA389A30FC088EC90E098A38F8F8F8D94
:101BC00098A10197F1F798A38F8F89A19AA1019706
:101BD0009AA389A389A19AA1009769F714C06BA160
:101BE0007CA18DA19EA10E944900DC01CB019AA39A
:101BF00089A389A19AA19E8F8D8F8D8D9E8D01972E
:101C0000F1F79E8F8D8F8CE00E94F90E80E090E0BE
:101C1000A0E2B1E4898F9A8FAB8FBC8F698D7A8DEA
:101C20008B8D9C8D20E030E04AEF54E40E941F022F
:101C3000DC01CB018D8B9E8BAF8BB88F6D897E893C
:101C40008F89988D20E030E040E85FE30E94250412
:101C500088232CF481E090E09C8B8B8B3FC06D89B6
:101C60007E898F89988D20E03FEF4FE757E40E94EF
:101C7000C50318164CF5698D7A8D8B8D9C8D20E0EF
:101C800030E040E251E40E941F02DC01CB01BC01C4
:101C9000CD010E944900DC01CB019C8B8B8B0FC0D6
:101CA00088EC90E09A8B898B89899A890197F1F762
:101CB0009A8B898B8B899C8901979C8B8B8B8B89C9
:101CC0009C89009769F714C06D897E898F89988DEA
:101CD0000E944900DC01CB019C8B8B8B8B899C89FA
:101CE000988B8F878F8598890197F1F7988B8F87CD
:101CF00081E00E94F90E80E090E0A0E2B1E48B87E1
:101D00009C87AD87BE876B857C858D859E8520E011
:101D100030E04AEF54E40E941F02DC01CB018F83C4
:101D20009887A987BA876F81788589859A8520E009
:101D300030E040E85FE30E94250488232CF481E032
:101D400090E09E838D833FC06F81788589859A85D9
:101D500020E03FEF4FE757E40E94C50318164CF50B
:101D60006B857C858D859E8520E030E040E251E4E6
:101D70000E941F02DC01CB01BC01CD010E94490081
:101D8000DC01CB019E838D830FC088EC90E09C83A7
:101D90008B838B819C810197F1F79C838B838D8151
:101DA0009E8101979E838D838D819E81009769F727
:101DB00014C06F81788589859A850E944900DC016D
:101DC000CB019E838D838D819E819A8389838981B6
:101DD0009A810197F1F79A83898386E00E94F90E30
:101DE000E8960FB6F894DEBF0FBECDBFCF91DF915E
:101DF0000895DF93CF93CDB7DEB769970FB6F89408
:101E0000DEBF0FBECDBF898F80E060E040E00E9462
:101E1000D30780E061E040E00E94D30782E0698D53
:101E20000E941C0980E062E041E00E94D30780E04C
:101E300090E0A0E8BFE38D8B9E8BAF8BB88F6D8950
:101E40007E898F89988D2BEA3AEA4AE250E40E9413
:101E50001F02DC01CB01898B9A8BAB8BBC8B698910
:101E60007A898B899C8920E030E040E85FE30E941A
:101E7000250488231CF481E0888B91C069897A89C4
:101E80008B899C8920E030E04FE753E40E94C50332
:101E900018160CF07BC06D897E898F89988D20E0A3
:101EA00030E04AE754E40E941903DC01CB018C873F
:101EB0009D87AE87BF876C857D858E859F8520E059
:101EC00030E04AEF54E40E941F02DC01CB01888716
:101ED0009987AA87BB87688579858A859B8520E055
:101EE00030E040E85FE30E94250488232CF481E081
:101EF00090E09F838E833FC0688579858A859B8526
:101F000020E03FEF4FE757E40E94C50318164CF559
:101F10006C857D858E859F8520E030E040E251E430
:101F20000E941F02DC01CB01BC01CD010E944900CF
:101F3000DC01CB019F838E830FC088EC90E09D83F2
:101F40008C838C819D810197F1F79D838C838E8199
:101F50009F8101979F838E838E819F81009769F770
:101F600024C0688579858A859B850E944900DC01AB
:101F7000CB019F838E838E819F819B838A838A81FD
:101F80009B810197F1F79B838A830FC069897A89C6
:101F90008B899C890E944900DC01CB01888B888950
:101FA000898389818A95F1F7898380E062E040E046
:101FB0000E94D30769960FB6F894DEBF0FBECDBF5F
:101FC000CF91DF910895DF93CF93CDB7DEB76997B7
:101FD0000FB6F894DEBF0FBECDBF898F80E060E002
:101FE00041E00E94D30780E061E040E00E94D30717
:101FF00082E0698D0E941C0980E062E041E00E945D
:10200000D30780E090E0A0E8BFE38D8B9E8BAF8B81
:10201000B88F6D897E898F89988D2BEA3AEA4AE2DA
:1020200050E40E941F02DC01CB01898B9A8BAB8BA1
:10203000BC8B69897A898B899C8920E030E040E8F3
:102040005FE30E94250488231CF481E0888B91C003
:1020500069897A898B899C8920E030E04FE753E4D5
:102060000E94C50318160CF07BC06D897E898F898C
:10207000988D20E030E04AE754E40E941903DC0127
:10208000CB018C879D87AE87BF876C857D858E85CC
:102090009F8520E030E04AEF54E40E941F02DC01FB
:1020A000CB0188879987AA87BB87688579858A85C8
:1020B0009B8520E030E040E85FE30E942504882310
:1020C0002CF481E090E09F838E833FC06885798502
:1020D0008A859B8520E03FEF4FE757E40E94C503C8
:1020E00018164CF56C857D858E859F8520E030E047
:1020F00040E251E40E941F02DC01CB01BC01CD0192
:102100000E944900DC01CB019F838E830FC088ECC5
:1021100090E09D838C838C819D810197F1F79D8355
:102120008C838E819F8101979F838E838E819F8177
:10213000009769F724C0688579858A859B850E9408
:102140004900DC01CB019F838E838E819F819B831D
:102150008A838A819B810197F1F79B838A830FC0D1
:1021600069897A898B899C890E944900DC01CB01AD
:10217000888B8889898389818A95F1F7898380E0B2
:1021800062E040E00E94D30769960FB6F894DEBF84
:102190000FBECDBFCF91DF910895DF93CF93CDB721
:1021A000DEB762970FB6F894DEBF0FBECDBF8F8744
:1021B000688B80E090E0A0E0B0E48B879C87AD87DF
:1021C000BE876B857C858D859E8520E030E04AEF5B
:1021D00054E40E941F02DC01CB018F839887A987FA
:1021E000BA876F81788589859A8520E030E040E85C
:1021F0005FE30E94250488232CF481E090E09E8315
:102200008D833FC06F81788589859A8520E03FEF77
:102210004FE757E40E94C50318164CF56B857C8583
:102220008D859E8520E030E040E251E40E941F024F
:10223000DC01CB01BC01CD010E944900DC01CB01D6
:102240009E838D830FC088EC90E09C838B838B8171
:102250009C810197F1F79C838B838D819E810197EF
:102260009E838D838D819E81009769F714C06F8155
:10227000788589859A850E944900DC01CB019E837F
:102280008D838D819E819A83898389819A8101972B
:10229000F1F79A8389838F85282F30E03A8B298B39
:1022A00089899A898130910531F029893A892230CA
:1022B000310531F009C0888980580E94F90E04C0A8
:1022C000888980540E94F90E62960FB6F894DEBF9A
:1022D0000FBECDBFCF91DF910895DF93CF9300D094
:1022E000CDB7DEB79A8389830AC0E981FA818081FC
:1022F0000E94E30F89819A8101969A838983E981FB
:10230000FA818081882389F70F900F90CF91DF9118
:102310000895DF93CF93CDB7DEB7A4970FB6F894A7
:10232000DEBF0FBECDBF69A37AA38BA39CA389A1F7
:102330009AA19E012F5F3F4FB9014AE050E00E94F1
:102340006A1CCE0101960E946D11A4960FB6F894F6
:10235000DEBF0FBECDBFCF91DF910895DF93CF9346
:10236000CDB7DEB72C970FB6F894DEBF0FBECDBF4A
:1023700069877A878B879C8781E090E0A0E0B0E056
:102380008D839E83AF83B88719821A821B821C8239
:1023900089859A85AB85BC850097A105B105B1F407
:1023A00080E30E94E30F7AC08D819E81AF81B88562
:1023B0002AE030E040E050E0BC01CD010E94F21B79
:1023C000DC01CB018D839E83AF83B88789859A8595
:1023D000AB85BC852D813E814F815885BC01CD01E7
:1023E0000E94111CDA01C9010097A105B105E1F6AF
:1023F0008D819E81AF81B8852AE030E040E050E0D9
:10240000BC01CD010E94111CDA01C9018D839E839C
:10241000AF83B8873AC089859A85AB85BC852D8105
:102420003E814F815885BC01CD010E94111CDA010B
:10243000C90189839A83AB83BC838981805D0E94B3
:10244000E30F89859A85AB85BC852D813E814F81BF
:102450005885BC01CD010E94111CDC01CB0189878C
:102460009A87AB87BC878D819E81AF81B8852AE032
:1024700030E040E050E0BC01CD010E94111CDA01C7
:10248000C9018D839E83AF83B8878D819E81AF8183
:10249000B8850097A105B10509F0BDCF2C960FB600
:1024A000F894DEBF0FBECDBFCF91DF910895DF93CB
:1024B000CF93CDB7DEB781E00E94F90E81E060E0F6
:1024C0000E94CD10CF91DF910895DF93CF93CDB7C8
:1024D000DEB70E9470120E948612CF91DF9108959C
:1024E000DF93CF93CDB7DEB780E065E041E00E9497
:1024F000CB0680E066E041E00E94CB0680E067E02A
:1025000041E00E94CB06CF91DF910895DF93CF93F6
:10251000CDB7DEB783E066E041E00E94CB06CF9105
:10252000DF910895DF93CF93CDB7DEB72E970FB627
:10253000F894DEBF0FBECDBF0E94571283E065E066
:1025400041E00E94CB060E940F1880E690E00E94B6
:102550006D1180E065E041E00E94D30780E090E0EB
:10256000A8ECB2E48B879C87AD87BE876B857C85A2
:102570008D859E8520E030E04AEF54E40E941F02E2
:10258000DC01CB018F839887A987BA876F81788513
:1025900089859A8520E030E040E85FE30E942504C9
:1025A00088232CF481E090E09E838D833FC06F816F
:1025B000788589859A8520E03FEF4FE757E40E94B0
:1025C000C50318164CF56B857C858D859E8520E0AE
:1025D00030E040E251E40E941F02DC01CB01BC016B
:1025E000CD010E944900DC01CB019E838D830FC089
:1025F00088EC90E09C838B838B819C810197F1F721
:102600009C838B838D819E8101979E838D838D8199
:102610009E81009769F714C06F81788589859A85B6
:102620000E944900DC01CB019E838D838D819E81B8
:102630009A83898389819A810197F1F79A838983A3
:102640002E960FB6F894DEBF0FBECDBFCF91DF91AF
:102650000895DF93CF93CDB7DEB72E970FB6F894DA
:10266000DEBF0FBECDBF89E690E00E946D1182E013
:1026700060E00E94CD1088E790E00E946D1180E03C
:1026800090E0A8E4B3E48B879C87AD87BE876B8519
:102690007C858D859E8520E030E04AEF54E40E94E1
:1026A0001F02DC01CB018F839887A987BA876F81CE
:1026B000788589859A8520E030E040E85FE30E94D4
:1026C000250488232CF481E090E09E838D833FC015
:1026D0006F81788589859A8520E03FEF4FE757E441
:1026E0000E94C50318164CF56B857C858D859E85EB
:1026F00020E030E040E251E40E941F02DC01CB0107
:10270000BC01CD010E944900DC01CB019E838D8379
:102710000FC088EC90E09C838B838B819C81019718
:10272000F1F79C838B838D819E8101979E838D839E
:102730008D819E81009769F714C06F8178858985A6
:102740009A850E944900DC01CB019E838D838D8197
:102750009E819A83898389819A810197F1F79A836F
:1027600089832E960FB6F894DEBF0FBECDBFCF91F2
:10277000DF910895DF93CF93CDB7DEB70E94571254
:1027800083E890E00E946D1182E060E00E94CD102D
:1027900082E990E00E946D11CF91DF910895DF935F
:1027A000CF93CDB7DEB70E94571282EA90E00E9425
:1027B0006D11CF91DF910895DF93CF93CDB7DEB741
:1027C0002E970FB6F894DEBF0FBECDBF0E945712F2
:1027D0008CEA90E00E946D1182E060E00E94CD10D2
:1027E00086EB90E00E946D1180E090E0A6E9B3E4F2
:1027F0008B879C87AD87BE876B857C858D859E8505
:1028000020E030E04AEF54E40E941F02DC01CB01DB
:102810008F839887A987BA876F81788589859A85FC
:1028200020E030E040E85FE30E94250488232CF498
:1028300081E090E09E838D833FC06F81788589859C
:102840009A8520E03FEF4FE757E40E94C503181632
:102850004CF56B857C858D859E8520E030E040E2DF
:1028600051E40E941F02DC01CB01BC01CD010E949A
:102870004900DC01CB019E838D830FC088EC90E082
:102880009C838B838B819C810197F1F79C838B8345
:102890008D819E8101979E838D838D819E8100977E
:1028A00069F714C06F81788589859A850E944900EF
:1028B000DC01CB019E838D838D819E819A838983E8
:1028C00089819A810197F1F79A8389830E9457122F
:1028D00081EC90E00E946D1182E060E00E94CD10DA
:1028E0008EEC90E00E946D112E960FB6F894DEBF2C
:1028F0000FBECDBFCF91DF910895DF93CF93CDB7BA
:10290000DEB72E970FB6F894DEBF0FBECDBF0E9484
:10291000571280ED90E00E946D1180E090E0A6E9F2
:10292000B3E48B879C87AD87BE876B857C858D855F
:102930009E8520E030E04AEF54E40E941F02DC0153
:10294000CB018F839887A987BA876F81788589851E
:102950009A8520E030E040E85FE30E942504882368
:102960002CF481E090E09E838D833FC06F81788559
:1029700089859A8520E03FEF4FE757E40E94C50321
:1029800018164CF56B857C858D859E8520E030E0A2
:1029900040E251E40E941F02DC01CB01BC01CD01E9
:1029A0000E944900DC01CB019E838D830FC088EC1F
:1029B00090E09C838B838B819C810197F1F79C83B2
:1029C0008B838D819E8101979E838D838D819E81D6
:1029D000009769F714C06F81788589859A850E9470
:1029E0004900DC01CB019E838D838D819E819A837A
:1029F000898389819A810197F1F79A8389832E9639
:102A00000FB6F894DEBF0FBECDBFCF91DF91089512
:102A1000DF93CF93CDB7DEB72E970FB6F894DEBF16
:102A20000FBECDBF0E9457128BED90E00E946D113A
:102A300080E090E0A0E7B2E48B879C87AD87BE87FB
:102A40006B857C858D859E8520E030E04AEF54E4DF
:102A50000E941F02DC01CB018F839887A987BA8768
:102A60006F81788589859A8520E030E040E85FE3D2
:102A70000E94250488232CF481E090E09E838D83BE
:102A80003FC06F81788589859A8520E03FEF4FE7C9
:102A900057E40E94C50318164CF56B857C858D851F
:102AA0009E8520E030E040E251E40E941F02DC01FC
:102AB000CB01BC01CD010E944900DC01CB019E830A
:102AC0008D830FC088EC90E09C838B838B819C81ED
:102AD0000197F1F79C838B838D819E8101979E8363
:102AE0008D838D819E81009769F714C06F817885F1
:102AF00089859A850E944900DC01CB019E838D83E4
:102B00008D819E819A83898389819A810197F1F7CA
:102B10009A8389832E960FB6F894DEBF0FBECDBF81
:102B2000CF91DF910895DF93CF93CDB7DEB72E9786
:102B30000FB6F894DEBF0FBECDBF0E94571287EECE
:102B400090E00E946D1180E090E0A8ECB2E48B87E9
:102B50009C87AD87BE876B857C858D859E8520E0B3
:102B600030E04AEF54E40E941F02DC01CB018F8366
:102B70009887A987BA876F81788589859A8520E0AB
:102B800030E040E85FE30E94250488232CF481E0D4
:102B900090E09E838D833FC06F81788589859A857B
:102BA00020E03FEF4FE757E40E94C50318164CF5AD
:102BB0006B857C858D859E8520E030E040E251E488
:102BC0000E941F02DC01CB01BC01CD010E94490023
:102BD000DC01CB019E838D830FC088EC90E09C8349
:102BE0008B838B819C810197F1F79C838B838D81F3
:102BF0009E8101979E838D838D819E81009769F7C9
:102C000014C06F81788589859A850E944900DC010E
:102C1000CB019E838D838D819E819A838983898157
:102C20009A810197F1F79A8389832E960FB6F894CB
:102C3000DEBF0FBECDBFCF91DF910895DF93CF935D
:102C4000CDB7DEB70E94571286EF90E00E946D115B
:102C500082E060E00E94CD1084E091E00E946D115E
:102C6000CF91DF910895DF93CF93CDB7DEB76E9705
:102C70000FB6F894DEBF0FBECDBF0E94571284E19D
:102C800091E00E946D111E8E1D8EF3C083E067E0FF
:102C900041E00E94D30780E090E0A8ECB2E4898F85
:102CA0009A8FAB8FBC8F698D7A8D8B8D9C8D20E038
:102CB00030E04AEF54E40E941F02DC01CB018D8B0F
:102CC0009E8BAF8BB88F6D897E898F89988D20E020
:102CD00030E040E85FE30E94250488232CF481E083
:102CE00090E09C8B8B8B3FC06D897E898F89988DFE
:102CF00020E03FEF4FE757E40E94C50318164CF55C
:102D0000698D7A8D8B8D9C8D20E030E040E251E41E
:102D10000E941F02DC01CB01BC01CD010E944900D1
:102D2000DC01CB019C8B8B8B0FC088EC90E09A8BE5
:102D3000898B89899A890197F1F79A8B898B8B897D
:102D40009C8901979C8B8B8B8B899C89009769F759
:102D500014C06D897E898F89988D0E944900DC019D
:102D6000CB019C8B8B8B8B899C89988B8F878F85D4
:102D700098890197F1F7988B8F8783E067E040E0AF
:102D80000E94D30780E090E0A0E7B2E48B879C87A5
:102D9000AD87BE876B857C858D859E8520E030E084
:102DA0004AEF54E40E941F02DC01CB018F83988715
:102DB000A987BA876F81788589859A8520E030E078
:102DC00040E85FE30E94250488232CF481E090E032
:102DD0009E838D833FC06F81788589859A8520E0A9
:102DE0003FEF4FE757E40E94C50318164CF56B857B
:102DF0007C858D859E8520E030E040E251E40E9494
:102E00001F02DC01CB01BC01CD010E944900DC01A5
:102E1000CB019E838D830FC088EC90E09C838B83D5
:102E20008B819C810197F1F79C838B838D819E819F
:102E300001979E838D838D819E81009769F714C0D1
:102E40006F81788589859A850E944900DC01CB01D4
:102E50009E838D838D819E819A83898389819A81C6
:102E60000197F1F79A8389838D8D9E8D01969E8FB0
:102E70008D8F8D8D9E8D833091050CF407CF6E96CE
:102E80000FB6F894DEBF0FBECDBFCF91DF9108958E
:102E9000DF93CF93CDB7DEB70E9457128BE191E05D
:102EA0000E946D1182E060E00E94CD108EE291E000
:102EB0000E946D1180E067E041E00E94D307CF914E
:102EC000DF910895DF93CF93CDB7DEB72F970FB67D
:102ED000F894DEBF0FBECDBF0E94571284E790E08A
:102EE0000E945E1980E090E0A0EAB0E48B879C87A6
:102EF000AD87BE876B857C858D859E8520E030E023
:102F00004AEF54E40E941F02DC01CB018F839887B3
:102F1000A987BA876F81788589859A8520E030E016
:102F200040E85FE30E94250488232CF481E090E0D0
:102F30009E838D833FC06F81788589859A8520E047
:102F40003FEF4FE757E40E94C50318164CF56B8519
:102F50007C858D859E8520E030E040E251E40E9432
:102F60001F02DC01CB01BC01CD010E944900DC0144
:102F7000CB019E838D830FC088EC90E09C838B8374
:102F80008B819C810197F1F79C838B838D819E813E
:102F900001979E838D838D819E81009769F714C070
:102FA0006F81788589859A850E944900DC01CB0173
:102FB0009E838D838D819E819A83898389819A8165
:102FC0000197F1F79A83898388E391E00E946D115C
:102FD0000E9478198F878F858C3629F485E491E0DB
:102FE0000E946D110FC08F858D3629F489E491E020
:102FF0000E946D1107C08F85883621F480E591E02D
:103000000E946D1182E060E00E94CD102F960FB6F5
:10301000F894DEBF0FBECDBFCF91DF910895DF934F
:10302000CF93CDB7DEB7AFE4B0E0EFE4F0E080815E
:103030008E7F8C93AFE4B0E0EFE4F0E080818260BB
:103040008C93AEE4B0E0EEE4F0E0808188608C9395
:10305000AEE4B0E0EEE4F0E0808180618C93AFE418
:10306000B0E0EFE4F0E080818F7B8C93AFE4B0E0E0
:10307000EFE4F0E0808180688C93E6E4F0E08FE19B
:103080009EE491838083EAE4F0E084EF91E0918311
:103090008083AEE4B0E0EEE4F0E080818E7F8C933C
:1030A000AEE4B0E0EEE4F0E0808182608C93AEE4C8
:1030B000B0E0EEE4F0E080818B7F8C93CF91DF91E4
:1030C0000895DF93CF93CDB7DEB7A3E5B0E0E3E596
:1030D000F0E080818F7B8C93A3E5B0E0E3E5F0E046
:1030E0008081877F8C93AFE5B0E0EFE5F0E08081F1
:1030F00080688C93A9E5B0E0E9E5F0E0808181602B
:103100008C93E2E5F0E081E78083A3E5B0E0E3E5BE
:10311000F0E080818E7F8C93A3E5B0E0E3E5F0E002
:10312000808182608C93A3E5B0E0E3E5F0E08081EC
:103130008B7F8C93CF91DF910895DF93CF9300D055
:10314000CDB7DEB79A83898389819A8190938B0169
:1031500080938A010F900F90CF91DF9108951F9275
:103160000F920FB60F9211242F933F934F935F93BB
:103170006F937F938F939F93AF93BF93EF93FF933F
:10318000DF93CF93CDB7DEB780918801909189010D
:103190000196909389018093880180918801909194
:1031A00089012FE08334920769F41092890110920B
:1031B0008801E2E5F0E080EC8083E0918A01F09103
:1031C0008B010995CF91DF91FF91EF91BF91AF9165
:1031D0009F918F917F916F915F914F913F912F912F
:1031E0000F900FBE0F901F901895DF93CF93CDB720
:1031F000DEB783E060E040E00E94CB0683E061E060
:1032000041E00E94CB060E940819CF91DF910895FA
:10321000DF93CF9300D00F92CDB7DEB780E88B83DA
:1032200083E390E09A838983E9E2F0E089818083F7
:10323000E0E4F0E089819A81892F99278083ABE2CD
:10324000B0E0EBE2F0E080818D7F8C93ABE2B0E008
:10325000EBE2F0E080818E7F8C93AAE2B0E0EAE2BC
:10326000F0E0808180618C93AAE2B0E0EAE2F0E0D5
:10327000808188608C93AAE2B0E0EAE2F0E080818D
:103280008B7F8C938B8182608B838B8184608B831B
:103290008B818F7B8B838B818F7E8B838B818F7DCB
:1032A0008B838B8188608B83E0E4F0E08B8180836B
:1032B0000F900F900F90CF91DF910895DF93CF93F0
:1032C0000F92CDB7DEB78983EBE2F0E08081829583
:1032D00086958770882F90E0817090700097A1F399
:1032E000ECE2F0E0898180830F90CF91DF91089527
:1032F000DF93CF930F92CDB7DEB7EBE2F0E08081A2
:103300008823DCF7ECE2F0E08081898389810F90EB
:10331000CF91DF910895DF93CF9300D0CDB7DEB783
:103320009A83898389819A8190938D0180938C01FE
:103330000F900F90CF91DF910895DF93CF9300D03E
:1033400000D00F92CDB7DEB769837A838B839C83DD
:1033500080918C0190918D019C0140E050E0898129
:103360009A81AB81BC81281739074A075B0729F48A
:103370000E94921281E08D8303C00E9408151D8275
:103380008D810F900F900F900F900F90CF91DF9144
:103390000895DF93CF9300D000D0CDB7DEB78983F7
:1033A0008981282F30E03C832B838B819C8184335F
:1033B000910509F44BC02B813C8125333105DCF4A8
:1033C0008B819C8181339105C1F12B813C8122331A
:1033D000310534F48B819C818033910561F148C0C3
:1033E0002B813C812233310559F18B819C818333C0
:1033F000910549F13DC02B813C812733310579F19D
:103400008B819C81883391055CF42B813C81253331
:103410003105F9F08B819C8186339105E9F028C054
:103420002B813C8128333105E9F08B819C818933E4
:103430009105D9F01DC01A821DC091E09A831AC06F
:1034400022E02A8317C033E03A8314C084E08A83E1
:1034500011C095E09A830EC026E02A830BC037E0A6
:103460003A8308C088E08A8305C099E09A8302C045
:1034700022E32A838A810F900F900F900F90CF91B3
:10348000DF910895DF93CF9300D0CDB7DEB71982D7
:103490000E9429130E94530A0E941E160E942B0CA0
:1034A0008A838A81803349F40E94751A89838981CD
:1034B0000F900F90CF91DF9108958A81813391F41D
:1034C00083E067E041E00E94CB0680E066E041E0F7
:1034D0000E94D3070E94331680E066E040E00E941D
:1034E000D307DACF0E949315D7CFDF93CF93CDB711
:1034F000DEB727970FB6F894DEBF0FBECDBF1E8292
:103500001D821B821B823AC00E94CF131A8219822D
:1035100022C00E942B0C8C838C810E94E30F8C8133
:103520000E94C9198C838D819E819C01220F331FBB
:10353000C901880F991F880F991F280F391F8C8187
:10354000882F90E0820F931F9E838D8389819A81BB
:1035500001969A83898389819A8184309105CCF27E
:103560008D819E81CC01A0E0B0E0BC01CD010E9424
:103570009D19882331F48B818F5F8B838B818330FE
:1035800018F28B81833021F40E9448171F8202C0F9
:1035900081E08F838F8127960FB6F894DEBF0FBE30
:1035A000CDBFCF91DF910895DF93CF9300D0CDB7FA
:1035B000DEB783E00E948E069A83898389819A818F
:1035C0008930910530F483E066E041E00E94D30742
:1035D00005C083E066E040E00E94D3070F900F90A3
:1035E000CF91DF910895DF93CF930F92CDB7DEB7E0
:1035F0000E94F5180E9465120E94FF0C0E941C0C8C
:103600000E94421A89830E944F0684ED9AE10E942B
:103610009D180E9461188981813019F40E94121B43
:10362000FDCFFFCFDF93CF93CDB7DEB72F970FB688
:10363000F894DEBF0FBECDBF0E94BA130E942B0CC0
:103640008F878F858033C1F40E94621785E591E0F2
:103650000E946D110E942B0C8F878F85803321F47F
:1036600080E30E945E1943C08F85813309F03FC01B
:1036700081E30E945E193BC08F85813381F40E94F3
:10368000621780E691E00E946D110E942B0C8F87DB
:103690008F85813361F581E60E945E1928C08F8590
:1036A000823381F40E94621787E691E00E946D11D7
:1036B0000E942B0C8F878F858233C9F482E60E948B
:1036C0005E1915C08F85833381F40E9462178DE6E1
:1036D00091E00E946D110E942B0C8F878F858333A0
:1036E00031F483E60E945E1902C00E94931580E0C7
:1036F00090E0A0EAB1E48B879C87AD87BE876B859D
:103700007C858D859E8520E030E04AEF54E40E9460
:103710001F02DC01CB018F839887A987BA876F814D
:10372000788589859A8520E030E040E85FE30E9453
:10373000250488232CF481E090E09E838D833FC094
:103740006F81788589859A8520E03FEF4FE757E4C0
:103750000E94C50318164CF56B857C858D859E856A
:1037600020E030E040E251E40E941F02DC01CB0186
:10377000BC01CD010E944900DC01CB019E838D83F9
:103780000FC088EC90E09C838B838B819C81019798
:10379000F1F79C838B838D819E8101979E838D831E
:1037A0008D819E81009769F714C06F817885898526
:1037B0009A850E944900DC01CB019E838D838D8117
:1037C0009E819A83898389819A810197F1F79A83EF
:1037D00089832F960FB6F894DEBF0FBECDBFCF9171
:1037E000DF910895629FD001739FF001829FE00DE9
:1037F000F11D649FE00DF11D929FF00D839FF00D70
:10380000749FF00D659FF00D9927729FB00DE11D1B
:10381000F91F639FB00DE11DF91FBD01CF011124F8
:103820000895A1E21A2EAA1BBB1BFD010DC0AA1F01
:10383000BB1FEE1FFF1FA217B307E407F50720F019
:10384000A21BB30BE40BF50B661F771F881F991F94
:103850001A9469F760957095809590959B01AC01DD
:10386000BD01CF0108952F923F924F925F926F92C8
:103870007F928F929F92AF92BF92CF92DF92EF9200
:10388000FF920F931F93CF93DF93CDB7DEB7CA1B81
:10389000DB0B0FB6F894DEBF0FBECDBF09942A88AC
:1038A000398848885F846E847D848C849B84AA8454
:1038B000B984C884DF80EE80FD800C811B81AA81E1
:1038C000B981CE0FD11D0FB6F894DEBF0FBECDBFAC
:1038D000ED010895FB019F01E8944230C4F04532A8
:1038E000B4F44A3029F497FB1EF4909581959F4FCC
:1038F000642F77270E949B1C805D8A330CF0895DC2
:103900008193CB010097A1F716F45DE251931082E9
:10391000C9010C948B1CDC01FC01672F719177238A
:10392000E1F7329704C07C916D9370836291AE177A
:10393000BF07C8F30895AA1BBB1B51E107C0AA1F0C
:10394000BB1FA617B70710F0A61BB70B881F991F40
:103950005A95A9F780959095BC01CD010895F894EA
:02396000FFCF97
:103962002077656C636F6D650057656C636F6D657D
:1039720020746F2074686500736D61727420686FC3
:103982006D650048616C6C3A3020526F6F6D313A50
:103992003100526F6F6D323A3220526F6F6D333A8F
:1039A200330050617373776F72643A004C6F6769CA
:1039B2006E20666F720066697273742074696D6539
:1039C200005365742050617373776F7264003A001C
:1039D20050617373205361766564002077726F6E55
:1039E2006720706173730077726F6E672073656C06
:1039F20065637420210053656C656374206D6F6488
:103A020065203A00303A41646D696E20313A47755B
:103A120065737400776169742E2E00736F72727908
:103A2200206E6F7420616C6C6F77656420006D6F1F
:103A32007265206F6620330054656D706572617423
:103A42007572653A004C6F77004D6964646C65006D
:103A5200486967680054563A30204C45443A310070
:103A6200204C45443A31004C45443A32004C4544DE
:103A72003A330000000000000000003132333435D8
:083A8200363738392A302300E1
:00000001FF
